{
  "contractName": "MedicalRecords",
  "abi": [
    {
      "inputs": [],
      "payable": false,
      "stateMutability": "nonpayable",
      "type": "constructor"
    },
    {
      "constant": true,
      "inputs": [],
      "name": "patientCount",
      "outputs": [
        {
          "internalType": "uint256",
          "name": "",
          "type": "uint256"
        }
      ],
      "payable": false,
      "stateMutability": "view",
      "type": "function"
    },
    {
      "constant": true,
      "inputs": [
        {
          "internalType": "uint256",
          "name": "",
          "type": "uint256"
        }
      ],
      "name": "patients",
      "outputs": [
        {
          "internalType": "uint256",
          "name": "id",
          "type": "uint256"
        },
        {
          "internalType": "uint256",
          "name": "aadharID",
          "type": "uint256"
        },
        {
          "internalType": "string",
          "name": "name",
          "type": "string"
        },
        {
          "internalType": "uint256",
          "name": "age",
          "type": "uint256"
        },
        {
          "internalType": "string",
          "name": "gender",
          "type": "string"
        },
        {
          "internalType": "string",
          "name": "medicalHistory",
          "type": "string"
        },
        {
          "internalType": "string",
          "name": "reportLocation",
          "type": "string"
        }
      ],
      "payable": false,
      "stateMutability": "view",
      "type": "function"
    },
    {
      "constant": false,
      "inputs": [
        {
          "internalType": "uint256",
          "name": "_aadharID",
          "type": "uint256"
        },
        {
          "internalType": "string",
          "name": "_name",
          "type": "string"
        },
        {
          "internalType": "uint256",
          "name": "_age",
          "type": "uint256"
        },
        {
          "internalType": "string",
          "name": "_gender",
          "type": "string"
        },
        {
          "internalType": "string",
          "name": "_medicalHistory",
          "type": "string"
        },
        {
          "internalType": "string",
          "name": "_reportLocation",
          "type": "string"
        }
      ],
      "name": "addPatient",
      "outputs": [],
      "payable": false,
      "stateMutability": "nonpayable",
      "type": "function"
    },
    {
      "constant": false,
      "inputs": [
        {
          "internalType": "uint256",
          "name": "_id",
          "type": "uint256"
        }
      ],
      "name": "deletePatient",
      "outputs": [],
      "payable": false,
      "stateMutability": "nonpayable",
      "type": "function"
    },
    {
      "constant": true,
      "inputs": [
        {
          "internalType": "uint256",
          "name": "_aadharID",
          "type": "uint256"
        }
      ],
      "name": "getPatientIdByAadharID",
      "outputs": [
        {
          "internalType": "uint256",
          "name": "",
          "type": "uint256"
        }
      ],
      "payable": false,
      "stateMutability": "view",
      "type": "function"
    },
    {
      "constant": true,
      "inputs": [
        {
          "internalType": "uint256",
          "name": "_id",
          "type": "uint256"
        }
      ],
      "name": "getPatient",
      "outputs": [
        {
          "internalType": "uint256",
          "name": "",
          "type": "uint256"
        },
        {
          "internalType": "string",
          "name": "",
          "type": "string"
        },
        {
          "internalType": "uint256",
          "name": "",
          "type": "uint256"
        },
        {
          "internalType": "string",
          "name": "",
          "type": "string"
        },
        {
          "internalType": "string",
          "name": "",
          "type": "string"
        },
        {
          "internalType": "string",
          "name": "",
          "type": "string"
        }
      ],
      "payable": false,
      "stateMutability": "view",
      "type": "function"
    },
    {
      "constant": true,
      "inputs": [],
      "name": "getAllPatients",
      "outputs": [
        {
          "internalType": "uint256[]",
          "name": "",
          "type": "uint256[]"
        }
      ],
      "payable": false,
      "stateMutability": "view",
      "type": "function"
    }
  ],
  "bytecode": "0x60806040523480156200001157600080fd5b50620000ab6104d26040518060400160405280600781526020016629b430b43130bd60c91b8152506015604051806040016040528060048152602001636d616c6560e01b8152506040518060400160405280600f81526020016e043686f6c65737465726f6c2c20425608c1b815250604051806040016040528060068152602001651899199a30b160d11b815250620001cd60201b60201c565b6200013c6104d36040518060400160405280600681526020016550726163686960d01b81525060156040518060400160405280600681526020016566656d616c6560d01b8152506040518060400160405280600681526020016506c6f772042560d41b815250604051806040016040528060068152602001651899199ab0b160d11b815250620001cd60201b60201c565b620001c76104d4604051806040016040528060068152602001650a6eadacac8d60d31b8152506015604051806040016040528060048152602001636d616c6560e01b815250604051806040016040528060028152602001612a2160f11b815250604051806040016040528060068152602001651899199b30b160d11b815250620001cd60201b60201c565b62000354565b6001805481018082556040805160e08101825282815260208082018b81528284018b8152606084018b9052608084018a905260a0840189905260c08401889052600095865285835293909420825181559351948401949094559051805191936200024092600285019290910190620002af565b50606082015160038201556080820151805162000268916004840191602090910190620002af565b5060a0820151805162000286916005840191602090910190620002af565b5060c08201518051620002a4916006840191602090910190620002af565b505050505050505050565b828054600181600116156101000203166002900490600052602060002090601f016020900481019282601f10620002f257805160ff191683800117855562000322565b8280016001018555821562000322579182015b828111156200032257825182559160200191906001019062000305565b506200033092915062000334565b5090565b6200035191905b808211156200033057600081556001016200033b565b90565b61104880620003646000396000f3fe608060405234801561001057600080fd5b506004361061007d5760003560e01c80637d3a67961161005b5780637d3a67961461033b57806393119a8314610510578063a0303c41146106ec578063e9d90464146107065761007d565b806318a231a914610082578063432d9635146100da57806367e574821461031e575b600080fd5b61008a610723565b60408051602080825283518183015283519192839290830191858101910280838360005b838110156100c65781810151838201526020016100ae565b505050509050019250505060405180910390f35b61031c600480360360c08110156100f057600080fd5b81359190810190604081016020820135600160201b81111561011157600080fd5b82018360208201111561012357600080fd5b803590602001918460018302840111600160201b8311171561014457600080fd5b91908080601f01602080910402602001604051908101604052809392919081815260200183838082843760009201919091525092958435959094909350604081019250602001359050600160201b81111561019e57600080fd5b8201836020820111156101b057600080fd5b803590602001918460018302840111600160201b831117156101d157600080fd5b91908080601f0160208091040260200160405190810160405280939291908181526020018383808284376000920191909152509295949360208101935035915050600160201b81111561022357600080fd5b82018360208201111561023557600080fd5b803590602001918460018302840111600160201b8311171561025657600080fd5b91908080601f0160208091040260200160405190810160405280939291908181526020018383808284376000920191909152509295949360208101935035915050600160201b8111156102a857600080fd5b8201836020820111156102ba57600080fd5b803590602001918460018302840111600160201b831117156102db57600080fd5b91908080601f0160208091040260200160405190810160405280939291908181526020018383808284376000920191909152509295506107b7945050505050565b005b61031c6004803603602081101561033457600080fd5b5035610891565b6103586004803603602081101561035157600080fd5b5035610949565b604051808781526020018060200186815260200180602001806020018060200185810385528a818151815260200191508051906020019080838360005b838110156103ad578181015183820152602001610395565b50505050905090810190601f1680156103da5780820380516001836020036101000a031916815260200191505b5085810384528851815288516020918201918a019080838360005b8381101561040d5781810151838201526020016103f5565b50505050905090810190601f16801561043a5780820380516001836020036101000a031916815260200191505b50858103835287518152875160209182019189019080838360005b8381101561046d578181015183820152602001610455565b50505050905090810190601f16801561049a5780820380516001836020036101000a031916815260200191505b50858103825286518152865160209182019188019080838360005b838110156104cd5781810151838201526020016104b5565b50505050905090810190601f1680156104fa5780820380516001836020036101000a031916815260200191505b509a505050505050505050505060405180910390f35b61052d6004803603602081101561052657600080fd5b5035610c26565b604051808881526020018781526020018060200186815260200180602001806020018060200185810385528a818151815260200191508051906020019080838360005b83811015610588578181015183820152602001610570565b50505050905090810190601f1680156105b55780820380516001836020036101000a031916815260200191505b5085810384528851815288516020918201918a019080838360005b838110156105e85781810151838201526020016105d0565b50505050905090810190601f1680156106155780820380516001836020036101000a031916815260200191505b50858103835287518152875160209182019189019080838360005b83811015610648578181015183820152602001610630565b50505050905090810190601f1680156106755780820380516001836020036101000a031916815260200191505b50858103825286518152865160209182019188019080838360005b838110156106a8578181015183820152602001610690565b50505050905090810190601f1680156106d55780820380516001836020036101000a031916815260200191505b509b50505050505050505050505060405180910390f35b6106f4610e85565b60408051918252519081900360200190f35b6106f46004803603602081101561071c57600080fd5b5035610e8b565b606080600154604051908082528060200260200182016040528015610752578160200160208202803883390190505b509050600060015b60015481116107ae57600081815260208190526040902054156107a657600081815260208190526040902054835184908490811061079457fe5b60209081029190910101526001909101905b60010161075a565b50909150505b90565b6001805481018082556040805160e08101825282815260208082018b81528284018b8152606084018b9052608084018a905260a0840189905260c084018890526000958652858352939094208251815593519484019490945590518051919361082892600285019290910190610f0d565b50606082015160038201556080820151805161084e916004840191602090910190610f0d565b5060a0820151805161086a916005840191602090910190610f0d565b5060c08201518051610886916006840191602090910190610f0d565b505050505050505050565b6000811180156108a357506001548111155b6108ea576040805162461bcd60e51b8152602060048201526013602482015272496e76616c69642070617469656e742049442160681b604482015290519081900360640190fd5b600081815260208190526040812081815560018101829055906109106002830182610f8b565b60038201600090556004820160006109289190610f8b565b610936600583016000610f8b565b610944600683016000610f8b565b505050565b600060606000606080606060008711801561096657506001548711155b6109ad576040805162461bcd60e51b8152602060048201526013602482015272496e76616c69642070617469656e742049442160681b604482015290519081900360640190fd5b6000878152602081815260409182902060018082015460038301546002808501805488519581161561010002600019011691909104601f81018790048702850187019097528684529195919490936004810193600582019360069092019290918791830182828015610a605780601f10610a3557610100808354040283529160200191610a60565b820191906000526020600020905b815481529060010190602001808311610a4357829003601f168201915b5050865460408051602060026001851615610100026000190190941693909304601f8101849004840282018401909252818152959a5088945092508401905082828015610aee5780601f10610ac357610100808354040283529160200191610aee565b820191906000526020600020905b815481529060010190602001808311610ad157829003601f168201915b5050855460408051602060026001851615610100026000190190941693909304601f810184900484028201840190925281815295985087945092508401905082828015610b7c5780601f10610b5157610100808354040283529160200191610b7c565b820191906000526020600020905b815481529060010190602001808311610b5f57829003601f168201915b5050845460408051602060026001851615610100026000190190941693909304601f810184900484028201840190925281815295975086945092508401905082828015610c0a5780601f10610bdf57610100808354040283529160200191610c0a565b820191906000526020600020905b815481529060010190602001808311610bed57829003601f168201915b5050505050905095509550955095509550955091939550919395565b6000602081815291815260409081902080546001808301546002808501805487519481161561010002600019011691909104601f81018890048802840188019096528583529295909491929190830182828015610cc45780601f10610c9957610100808354040283529160200191610cc4565b820191906000526020600020905b815481529060010190602001808311610ca757829003601f168201915b50505050600383015460048401805460408051602060026001851615610100026000190190941693909304601f81018490048402820184019092528181529596939593945090830182828015610d5b5780601f10610d3057610100808354040283529160200191610d5b565b820191906000526020600020905b815481529060010190602001808311610d3e57829003601f168201915b5050505060058301805460408051602060026001851615610100026000190190941693909304601f8101849004840282018401909252818152949594935090830182828015610deb5780601f10610dc057610100808354040283529160200191610deb565b820191906000526020600020905b815481529060010190602001808311610dce57829003601f168201915b5050505060068301805460408051602060026001851615610100026000190190941693909304601f8101849004840282018401909252818152949594935090830182828015610e7b5780601f10610e5057610100808354040283529160200191610e7b565b820191906000526020600020905b815481529060010190602001808311610e5e57829003601f168201915b5050505050905087565b60015481565b600060015b6001548111610ed057600081815260208190526040902060010154831415610ec8576000908152602081905260409020549050610f08565b600101610e90565b5060405162461bcd60e51b8152600401808060200182810382526027815260200180610fed6027913960400191505060405180910390fd5b919050565b828054600181600116156101000203166002900490600052602060002090601f016020900481019282601f10610f4e57805160ff1916838001178555610f7b565b82800160010185558215610f7b579182015b82811115610f7b578251825591602001919060010190610f60565b50610f87929150610fd2565b5090565b50805460018160011615610100020316600290046000825580601f10610fb15750610fcf565b601f016020900490600052602060002090810190610fcf9190610fd2565b50565b6107b491905b80821115610f875760008155600101610fd856fe50617469656e74207769746820676976656e20416164686172204944206e6f7420666f756e6421a265627a7a72315820c333ad1b0baf7cdb808f8a678e2e8d78617fa198ea9eae9039a5515eb95f61f064736f6c63430005100032",
  "source": "/*pragma solidity ^0.5.16;\n\ncontract MedicalRecords{\n    struct Patient {\n               \n        uint id;\n        uint aadharID;\n        string name;\n        uint age;\n        string gender;\n        string medicalHistory;\n\n    }\n\n    mapping (uint => Patient) public patients;\n    uint public patientCount=0;\n     \n     constructor() public{\n         addPatient(1234, \"Shahbaz\", 21,  \"male\",\"Cholestrol, BP\");\n          addPatient(1235, \"Prachi\", 21,  \"female\",\"low BP\");\n           addPatient(1236, \"Sumedh\", 21,  \"male\",\"TB\");\n     }\n    function addPatient(uint _aadharID,string memory _name, uint _age, string memory _gender, string memory _medicalHistory) public {\n        patientCount++;\n        patients[patientCount] = Patient(patientCount,_aadharID, _name, _age, _gender, _medicalHistory);\n    }\n\n    function deletePatient(uint _id) public {\n        require(_id > 0 && _id <= patientCount, \"Invalid patient ID!\");\n        delete patients[_id];\n    }\n\n    function getPatientIdByAadharID(uint _aadharID) public view returns (uint) {\n        for (uint i = 1; i <= patientCount; i++) {\n            if (patients[i].aadharID == _aadharID) {\n                return patients[i].id;\n            }\n        }\n        revert(\"Patient with given Aadhar ID not found!\");\n    }\n\n    function getPatient(uint _id) public view returns (uint,string memory, uint, string memory, string memory) {\n        require(_id > 0 && _id <= patientCount, \"Invalid patient ID!\");\n        return ( patients[_id].aadharID,patients[_id].name, patients[_id].age, patients[_id].gender, patients[_id].medicalHistory);\n    }\n\n    function getAllPatients() public view returns (uint[] memory) {\n        uint[] memory patientIds = new uint[](patientCount);\n        uint j = 0;\n        for (uint i = 1; i <= patientCount; i++) {\n            if (patients[i].id != 0) {\n                patientIds[j] = patients[i].id;\n                j++;\n            }\n        }\n        return patientIds;\n    }\n}\n*/\npragma solidity ^0.5.16;\n\ncontract MedicalRecords {\n    struct Patient {\n        uint id;\n        uint aadharID;\n        string name;\n        uint age;\n        string gender;\n        string medicalHistory;\n        string reportLocation; // new field for storing reference to medical report\n    }\n\n    mapping (uint => Patient) public patients;\n    uint public patientCount;\n\n    constructor() public {\n        addPatient(1234, \"Shahbaz\", 21, \"male\", \"Cholesterol, BP\", \"1234ab\");\n        addPatient(1235, \"Prachi\", 21, \"female\", \"low BP\", \"1235ab\");\n        addPatient(1236, \"Sumedh\", 21, \"male\", \"TB\", \"1236ab\");\n    }\n\n    function addPatient(uint _aadharID, string memory _name, uint _age, string memory _gender, string memory _medicalHistory, string memory _reportLocation) public {\n        patientCount++;\n        patients[patientCount] = Patient(patientCount, _aadharID, _name, _age, _gender, _medicalHistory, _reportLocation);\n    }\n\n    function deletePatient(uint _id) public {\n        require(_id > 0 && _id <= patientCount, \"Invalid patient ID!\");\n        delete patients[_id];\n    }\n\n    function getPatientIdByAadharID(uint _aadharID) public view returns (uint) {\n        for (uint i = 1; i <= patientCount; i++) {\n            if (patients[i].aadharID == _aadharID) {\n                return patients[i].id;\n            }\n        }\n        revert(\"Patient with given Aadhar ID not found!\");\n    }\n\n    function getPatient(uint _id) public view returns (uint, string memory, uint, string memory, string memory, string memory) {\n        require(_id > 0 && _id <= patientCount, \"Invalid patient ID!\");\n        return (patients[_id].aadharID, patients[_id].name, patients[_id].age, patients[_id].gender, patients[_id].medicalHistory, patients[_id].reportLocation);\n    }\n\n    function getAllPatients() public view returns (uint[] memory) {\n        uint[] memory patientIds = new uint[](patientCount);\n        uint j = 0;\n        for (uint i = 1; i <= patientCount; i++) {\n            if (patients[i].id != 0) {\n                patientIds[j] = patients[i].id;\n                j++;\n            }\n        }\n        return patientIds;\n    }\n}",
  "sourcePath": "C:\\Users\\Prachi\\Documents\\BTP 8th sem\\blockchain-application-main\\contracts\\MedicalRecords.sol",
  "compiler": {
    "name": "solc",
    "version": "0.5.16+commit.9c3226ce.Emscripten.clang"
  },
  "schemaVersion": "3.4.13",
  "updatedAt": "2023-04-28T10:18:00.059Z",
  "devdoc": {
    "methods": {}
  },
  "userdoc": {
    "methods": {}
  }
}